:020000040800F2
:10000000280700209D010008A5010008A70100089D
:10001000A9010008AB010008AD01000800000000C4
:10002000000000000000000000000000AF01000818
:10003000B101000800000000B3010008B50100088C
:10004000B7010008B7010008B7010008B7010008B0
:10005000B7010008B7010008B7010008B7010008A0
:10006000B7010008B7010008B7010008B701000890
:10007000B7010008B7010008B7010008B701000880
:10008000B7010008B7010008B7010008B701000870
:10009000B7010008B7010008B7010008B701000860
:1000A000B7010008B7010008B7010008B701000850
:1000B000B7010008B7010008B7010008B701000840
:1000C000B7010008B7010008B7010008B701000830
:1000D000B7010008B701000801100008B7010008C7
:1000E0007D030008B7010008B7010008B701000848
:1000F000B7010008B7010008B7010008B701000800
:10010000B7010008B7010008B7010008B7010008EF
:10011000B7010008B7010008B7010008B7010008DF
:10012000B7010008B7010008B7010008B7010008CF
:10013000B7010008B7010008B7010008B7010008BF
:10014000B7010008B7010008B7010008B7010008AF
:10015000B7010008B7010008B7010008B70100089F
:10016000B7010008B7010008B7010008B70100088F
:10017000B7010008B7010008B7010008B70100087F
:10018000B7010008B7010008DFF80CD000F078F8DC
:10019000004800471D130008280700200648804734
:1001A00006480047FEE7FEE7FEE7FEE7FEE7FEE75C
:1001B000FEE7FEE7FEE7FEE7F90D0008890100080B
:1001C00040EA01039B0703D009E008C9121F08C0D9
:1001D000042AFAD203E011F8013B00F8013B521E59
:1001E000F9D27047F0B4CA17CB0F50405140C6182F
:1001F00041F100054FEAC372314628004FF09603E3
:1002000003D0B623F0BC00F00CB830460021F9E76B
:100210000029A8BF7047401C490008BF20F001001A
:10022000704710B4B0FA80FC00FA0CF050EA0104F8
:1002300004BF10BC704749B1CCF1200421FA04F48A
:1002400011FA0CF118BF012121430843A3EB0C0163
:10025000CB1D4FEA00614FEA102042BF002010BCC6
:10026000704700EBC35010440029A4BF10BC704776
:10027000401C490008BF20F0010010BC704700007E
:10028000064C074D06E0E06840F0010394E80700E3
:1002900098471034AC42F6D3FFF77AFFAC1500084C
:1002A000CC1500081CB50121880300F033FB0121A7
:1002B000042000F00FFB012000210B460A46CDE987
:1002C00000104103094800F08FF90D21022000F0D1
:1002D00001FD01230C220021580300F061F80123E5
:1002E0001A460221282000F0A7FA1CBD000802408F
:1002F0001CB50121084600F0EDFA00200090032310
:100300000122D1030190044800F06EF94FF400413E
:10031000014800F045FA1CBD0000024070B50546DA
:100320000C4616460DB1022C01D8002070BDA11E4E
:100330003246284600F008F80646A01E2E54310A20
:10034000601E29543046F1E710B503460BB102296F
:1003500002D84FF6FF7010BD08E013F8010B5040B3
:10036000C0B2054C34F8100080EA2222081EA1F128
:100370000101F2D11046EEE7A813000810B54FF4C2
:10038000005000F025F838B14FF4005000F01AF892
:100390002021024800F008FA10BD000000000240D1
:1003A0002DE9FC4104460D4616461F4600948DF883
:1003B00004508DF805608DF80670684600F01CF852
:1003C000BDE8FC810149086070470000143C014011
:1003D000014600200022074B1B6803EA0102054B7F
:1003E00014331B680B4013B10AB1012000E0002058
:1003F00070470000003C0140002123498279002A17
:100400003AD00A46126803689A430B461A600A1DDE
:10041000126803689A430B1D1A60027911440A6836
:1004200003681A430A60184A0832126803689A433C
:10043000154B08331A601A1D126803689A43124B51
:100440000C331A604279102A0ED11A1F1268036801
:100450001A430D4B08331A601A1D126803681A43B9
:10046000094B0C331A600DE00749427911440A68C0
:1004700003681A430A6005E0027911440A680368B8
:100480009A430A6070470000003C014070B5054681
:100490000024284600F052FF06460EB9002070BD29
:1004A000102000F04BFF044624B9304600F00EFF48
:1004B0000020F4E7266065600020A060E56020462B
:1004C000EDE70146886808B9012070470020FCE785
:1004D0002DE9F04104460F461546A068A84202D215
:1004E0000020BDE8F081A068A8420AD12A4638461B
:1004F0002168FFF765FE0020A0606068E0600120D1
:10050000EFE7A068A0EB0508404600F017FF06469D
:100510000EB90020E5E72068411942463046FFF752
:100520004FFE2A4638462168FFF74AFE42463146CA
:100530002068FFF745FE304600F0C8FEA068401B6B
:10054000A060E0682844E0600120CAE72DE9F0419E
:10055000044688461546E068A8420FD3A268216881
:1005600088182A464146FFF72BFEA0682844A06061
:10057000E068401BE0600120BDE8F0816068A842AF
:100580000DD808EB05036668991B32462068FFF713
:1005900017FE6068A0600020E0600120ECE7606862
:1005A000461B304600F0CAFE07460FB90020E3E7BD
:1005B000A26820681044811B32463846FFF700FECF
:1005C000324639462068FFF7FBFD216888192A4624
:1005D0004146FFF7F5FD384600F078FE6068A06000
:1005E0000020E0600120C7E72DE9FC4704460D46E6
:1005F00016461F46DDE90A892648844203D10121B7
:10060000084600F067F92448844203D10121022002
:1006100000F060F92148844203D10121042000F058
:1006200059F91F48844203D10121082000F052F9F2
:100630001C48844203D10121102000F04BF91A48D4
:10064000844203D10121202000F044F9174884425C
:1006500003D10121402000F03DF91548844203D127
:100660000121802000F036F91248844203D1012193
:10067000801500F02FF900958DF804608DF8057055
:100680008DF806808DF807906946204600F014F832
:10069000BDE8FC8700000240000402400008024060
:1006A000000C0240001002400014024000180240FA
:1006B000001C024000200240F0B50A460021002341
:1006C000002400BF3DE0012505FA01F3156805EAA5
:1006D00003049C4234D105684F000326BE40B54355
:1006E000056015794E00B5400668354305601579FB
:1006F000012D02D01579022D16D185684F000326F1
:10070000BE40B543856055794E00B5408668354397
:100710008560456801268E40B543456045689679F9
:100720008E40B6B235434560C5684F000326BE40D3
:10073000B543C560D5794E00B540C6683543C56040
:10074000491C1029BFD3F0BDF0B5002300244D078C
:10075000ED0E02FA05F3CE1000F1200555F82650F3
:100760004E07F70E0F26BE40B543CF1000F120060E
:1007700046F82750CE1000F1200555F8265045EADE
:100780000304CE1000F1200545F82640F0BD0246D6
:10079000002013690B400BB1012000E000207047DE
:1007A000418370470183704742694A404261704704
:1007B0002DE9FC4104460D4616461F46DDF8208013
:1007C000CDE9007833462A46D4E90001FFF70CFF53
:1007D000BDE8FC8110B50446A28891B22068FFF7FD
:1007E000D6FF10BD10B50446A28891B22068FFF76D
:1007F000D7FF10BD10B50446A28891B22068FFF75C
:10080000D1FF10BD1CB50121084600F063F800209F
:10081000009003230122202101900448FFF7E4FE09
:1008200020210248FFF7BCFF1CBD00000000024071
:100830004FF08040406A7047F8B504460D461646B2
:100840001F468DF800408DF801508DF802608DF83C
:100850000370684600F002F8F8BD000070B5002192
:1008600000230F22C4781CB3174C246804F4E064FE
:10087000C4F5E064C4F30721C1F10404E3B20A4102
:1008800044789C40E1B28478144021430C07210E47
:100890000E4C05786155047804F01F050124AC4026
:1008A00005786D11AD0005F1E025C5F8004109E0BE
:1008B000047804F01F050124AC40054D067876113C
:1008C00045F8264070BD00000CED00E000E400E0BB
:1008D00080E100E029B1064A12680243044B1A6025
:1008E00004E0034A12688243014B1A60704700001B
:1008F0003038024029B1064A12680243044B1A609C
:1009000004E0034A12688243014B1A6070470000FA
:100910004038024029B1064A12680243044B1A606B
:1009200004E0034A12688243014B1A6070470000DA
:1009300044380240F0B500210022002402250026A0
:100940000223324F3F6807F00C0121B1042905D082
:10095000082937D105E02E4F076036E02D4F07609C
:1009600033E02A4F3F1F3F68C7F38056274F3F1F92
:100970003F6807F03F036EB1264FB7FBF3F7DFF890
:100980008CC0ACF1040CDCF800C0CCF3881C07FB75
:100990000CF40CE01E4FB7FBF3F7DFF870C0ACF1BE
:1009A000040CDCF800C0CCF3881C07FB0CF4174FD8
:1009B0003F1F3F68C7F301477F1C7D00B4FBF5F77D
:1009C000076002E0124F076000BF00BF0F4F3F6893
:1009D00007F0F0010909104F7A5C0768D7404760BB
:1009E0000A4F3F6807F4E051890A0B4F7A5C476869
:1009F000D7408760054F3F6807F46041490B064FB9
:100A00007A5C4768D740C760F0BD000008380240F4
:100A10000024F40000127A000000002070B500F0FD
:100A200085F8012814D100F061F80446204600F052
:100A300055F805462A462146064800F00FF80621DB
:100A4000044800F017FB20210348FFF7ADFE00BF6C
:100A500070BD0000140100200000024070B5044683
:100A60000D46164600202070657066804FF4E04207
:100A700006212046FFF752FC70BD000008B500209B
:100A8000144908701EE000201349124A00901278A1
:100A900001EB4210002303220121FFF789FE002011
:100AA0000D490C4A0090127801EB421101F1080047
:100AB000002303221946FFF77BFE06480078401CFE
:100AC00004490870034800780828DCDB002001494D
:100AD000087008BD100000201400002001460248E4
:100AE00000EB4110808B7047140000200448007810
:100AF00008B9072002E002480078401EC0B27047E3
:100B00001000002008480078401C07490870087849
:100B1000C11700EB5171C910A0EBC101024A11705D
:100B200010460078704700001000002070B5FFF7F5
:100B30007FFE064664486549097800EB41108069EC
:100B4000341A002560486149097800EB4110007CA7
:100B500018B9FFF7D7FF002070BD00210846611AC1
:100B600075EB000002DA641E45F100054FF4FA51FE
:100B7000611A75F1000001DA0020EDE75249534A8D
:100B8000127801EB4210FFF72DFE022000F090FBDF
:100B90004D494E4A127801EB4210FFF72BFE0A2016
:100BA00000F086FB4849494A127801EB4210FFF7F2
:100BB00019FEFFF73DFE064616E0FFF739FE841BDF
:100BC000002500210846611A75EB000002DA641E58
:100BD00045F1000546F678110020091BA84103DA0B
:100BE000FFF790FF0020B7E73749384A127801EB4A
:100BF000421101F10800FFF7EDFD0028DDD0FFF7FD
:100C000017FE3149314A127801EB42114861FFF772
:100C10000FFE064616E0FFF70BFE841B00250021A1
:100C20000846611A75EB000002DA641E45F1000502
:100C300046F678110020091BA84103DAFFF762FF8E
:100C4000002089E72049214A127801EB421101F185
:100C50000800FFF7BFFD0028DDD1FFF7E9FD1A49C5
:100C60001A4A127801EB421188611748174909782E
:100C700000EB411080691449144A127801EB4211CB
:100C80004969441A002500210846611A75EB0000E5
:100C900002DA641E45F1000520462946FFF7A2FA54
:100CA00000EE100ADFED0A0A80EE201ABCEEC10A3F
:100CB00010EE100A0449054A127801EB42118883AC
:100CC000FFF720FF012047E714000020100000205C
:100CD0000000684230B500228B071C0F0F2303FA77
:100CE00004F20B4B8C1053F824309343084C8D10B6
:100CF00044F8253023468C1053F824308C07240FF9
:100D000000FA04F42343024C8D1044F8253030BD22
:100D1000083801400CB5002001900090324800686E
:100D200040F480303049086000BF2F48006800F46C
:100D3000003000900198401C0190009818B901986B
:100D4000B0F5A06FF1D12848006800F4003010B170
:100D50000120009001E0002000900098012842D17D
:100D600021484030006840F080501F494031086001
:100D70001E48006840F480401C4908601A4808304A
:100D8000006819490831086008460068086008468C
:100D9000006808601648091F0860081F006840F0D6
:100DA0008070091F086000BF0F48006800F00070E5
:100DB0000028F9D040F205600E4908600A48083062
:100DC000006820F003000849083108600846006800
:100DD00040F00200086000BF03480830006800F0DF
:100DE0000C000828F8D10CBD00380240007000400B
:100DF000042A4107003C024010B51548006840F441
:100E00007000134908601348006840F00100114960
:100E1000086000200F49083108600E4800680E493C
:100E200008400C4908600D48091D0860081F00684B
:100E300020F48020091F0860002006490C3108605A
:100E4000FFF768FF4FF0006001498039086010BD6E
:100E500088ED00E000380240FFFFF6FE103000246D
:100E60001CB501210846FFF745FD00200090431EF8
:100E70000246532101904FF0804000F01BF8012101
:100E8000880700F00BF80123002219461C20FFF709
:100E9000D3FC0121880700F024F81CBD21B1028891
:100EA00042F08002028004E002884FF67F731A400D
:100EB000028070472DE9FE4307460C4615461E4644
:100EC000DDE90A89ADF80040ADF802500196ADF8B1
:100ED00008808DF80A906946384600F00FF8BDE8A2
:100EE000FE8321B1028842F00102028004E0028800
:100EF0004FF6FE731A4002807047000000220288FD
:100F0000184B98420ED0184B98420BD0B0F1804F3E
:100F100008D0164B984205D0154B984202D0154B7D
:100F2000984204D14FF68F731A404B881A43124BE4
:100F3000984207D0114B984204D04FF6FF431A4015
:100F40000B891A4302804B68C3620B880385054BEB
:100F5000984202D0044B984201D18B7A0386012338
:100F600083827047000001400004014000040040FB
:100F700000080040000C0040001000400014004039
:100F80001FB501214804FFF7B5FC01210846FFF712
:100F9000A1FC072202211748FFF7D6FB0020009092
:100FA00003230222042101901248FFF71DFB0120B8
:100FB00000210C22CDE900120B460A46CDE90210B1
:100FC0004FF4E1310C4800F069F8012240F225515C
:100FD000094800F0C5F80123002219462620FFF732
:100FE0002BFC0648006820B96420FFF74FFA03493C
:100FF00008601FBD00000240004400401C010020AA
:1010000038B540F22771194800F080F810B314E0A9
:10101000002000900122694615480068FFF758FA41
:1010200000BF4021114800F064F80028F9D09DF875
:1010300000100E4800F029F900BF0D480068FFF7C6
:1010400040FA0028E4D0002240F22771074800F05F
:1010500087F80AE040F22551044800F057F820B123
:10106000024800F00DF9C4B200BF38BD0044004092
:101070001C01002070B504460D462A46214605484D
:101080000068FFF763FA012240F22771024800F07E
:1010900067F870BD1C010020004400402DE9FF5F8F
:1010A00007460C4615461E46DDE910ABDDE90E8904
:1010B0000094ADF80450ADF80660ADF80880ADF8C6
:1010C0000A90ADF80CA06946384600F06FF8594612
:1010D000384600F002F8BDE8FF9F21B1828942F452
:1010E0000052828104E082894DF6FF731A408281AA
:1010F000704702460020B1F5007F00D100BF138881
:101100000B400BB1012000E00020704770B5024693
:10111000002400230025002040F66A16B14200D1C9
:1011200000BFC1F3421501F01F03012606FA03F3C5
:10113000012D02D19689334006E0022D02D1168A94
:10114000334001E0968A33400C12012606FA04F47B
:101150001688344013B10CB1012000E0002070BDAE
:10116000F0B50346002400260025002040F66A174B
:10117000B94200D100BF1846C1F3421401F01F0666
:10118000012707FA06F5012C01D10C3004E0022CEE
:1011900001D1103000E014301AB107682F43076006
:1011A00002E00768AF430760F0BD00002DE9FF478C
:1011B00005460E460024A14600BFA046B08900B1F6
:1011C00000BF2C8A24F44054F08804432C82AC895C
:1011D00041F20C608443B088318908437189084327
:1011E0000443AC81AC8A24F44074B0890443AC82DB
:1011F0006846FFF79FFB2048854202D01F48854282
:1012000002D1DDF80C9001E0DDF80890A88900F427
:10121000004040B109EBC90000EB091031684900FA
:10122000B0FBF1F707E009EBC90000EB09103168EA
:101230008900B0FBF1F76420B7FBF0F0040120094E
:10124000642101FB1078A88900F4004040B13220ED
:1012500000EBC800B0FBF1F000F00700044308E029
:10126000322000EB08106421B0FBF1F000F00F0019
:1012700004432C81BDE8FF870010014000140140A9
:1012800001468888C0F308007047C1F308028280D5
:10129000704702E008C8121F08C1002AFAD170473F
:1012A0007047002001E001C1121F002AFBD17047E6
:1012B00010B5002106E0282200BF131EA2F1010292
:1012C000FBD1491C8142F6D310BD000010B50028A7
:1012D00021D0114B0022001F196803E0814203D87E
:1012E0000A4649680029F9D152B11368841A9C4210
:1012F00004D1006818441060104602E0506000E01D
:10130000186039B102680B1A934203D10B681A4472
:1013100002604968416010BD20010020FFF730FEE7
:10132000FFF770FAFEF7BEFFFEF7E2FFFFF7A6FB3E
:10133000FFF796FD01E0FFF771FBFCE7F0B50B301E
:10134000154D20F007010024144A0FE003688B427A
:101350000BD38B4205D95E1A43184768C3E900676F
:1013600000E04368136002C004E0021D106800281A
:10137000ECD12046002802D1286808B10020F0BD39
:10138000064A07481060074A121A22F00702C0E90D
:10139000002401202860D7E724010020200100203C
:1013A0002C010020280300200000891112239B3209
:1013B0002446AD573665BF74488CC19D5AAFD3BE25
:1013C0006CCAE5DB7EE9F7F88110080193331A2235
:1013D000A5562C47B7753E64C99C408DDBBF52AE05
:1013E000EDDA64CBFFF976E802218B301002991315
:1013F0002667AF763444BD554AADC3BC588ED19FE5
:101400006EEBE7FA7CC8F5D983310A2091121803F4
:10141000A7772E66B5543C45CBBD42ACD99E508FC4
:10142000EFFB66EAFDD874C904428D5316619F70C4
:101430002004A9153227BB364CCEC5DF5EEDD7FCA4
:101440006888E1997AABF3BA85520C4397711E60B4
:10145000A1142805B3373A26CDDE44CFDFFD56EC84
:10146000E9986089FBBB72AA06638F7214409D5194
:101470002225AB343006B9174EEFC7FE5CCCD5DD64
:101480006AA9E3B8788AF19B87730E6295501C4174
:10149000A3352A24B1163807CFFF46EEDDDC54CD44
:1014A000EBB962A8F99A708B088481951AA793B654
:1014B0002CC2A5D33EE1B7F04008C919522BDB3A44
:1014C000644EED5F766DFF7C899400859BB712A614
:1014D000ADD224C3BFF136E0C1184809D33B5A2A24
:1014E000E55E6C4FF77D7E6C0AA583B418869197F4
:1014F0002EE3A7F23CC0B5D14229CB38500AD91B04
:10150000666FEF7E744CFD5D8BB502A499961087D3
:10151000AFF326E2BDD034C1C3394A28D11A580BE3
:10152000E77F6E6EF55C7C4D0CC685D71EE597F4A3
:101530002880A1913AA3B3B2444ACD5B5669DF78C3
:10154000600CE91D722FFB3E8DD604C79FF516E493
:10155000A9902081BBB332A2C55A4C4BD7795E68A3
:10156000E11C680DF33F7A2E0EE787F61CC495D573
:101570002AA1A3B03882B193466BCF7A5448DD5983
:10158000622DEB3C700EF91F8FF706E69DD414C553
:10159000ABB122A0B9923083C77B4E6AD5585C4963
:1015A000E33D6A2CF11E780F92360000CC1500083E
:1015B000000000202801000092120008F416000824
:1015C0002801002000060000A21200080000000010
:1015D00001020304010203040607080900000000D9
:1015E000000802400800000000080240010000005E
:1015F00001000000000000000000000000000000EA
:101600000008024004000000000802400200000040
:1016100001000000000000000000000000000000C9
:101620000008024000020000000802400001000023
:1016300001000000000000000000000000000000A9
:1016400000040240000100000008024040000000C9
:101650000100000000000000000000000000000089
:1016600000040240000200000008024020000000C8
:101670000100000000000000000000000000000069
:1016800000000240000100000004024002000000CF
:101690000100000000000000000000000000000049
:1016A000000402400004000000040240008000002A
:1016B0000100000000000000000000000000000029
:1016C000000402401000000000040240004000003E
:1016D0000100000000000000000000000000000009
:1016E00000000000000000000000000000000000FA
:0416F00000000000F6
:040000050800018965
:00000001FF
